{
  "contractName": "gldnfMeta",
  "abi": [
    {
      "constant": true,
      "inputs": [],
      "name": "playerCount",
      "outputs": [
        {
          "internalType": "uint256",
          "name": "",
          "type": "uint256"
        }
      ],
      "payable": false,
      "stateMutability": "view",
      "type": "function"
    },
    {
      "constant": true,
      "inputs": [
        {
          "internalType": "address",
          "name": "",
          "type": "address"
        }
      ],
      "name": "players",
      "outputs": [
        {
          "internalType": "address",
          "name": "playerAddress",
          "type": "address"
        },
        {
          "internalType": "enum gldnfMeta.level",
          "name": "playerLevel",
          "type": "uint8"
        },
        {
          "internalType": "string",
          "name": "firstName",
          "type": "string"
        },
        {
          "internalType": "string",
          "name": "lastName",
          "type": "string"
        }
      ],
      "payable": false,
      "stateMutability": "view",
      "type": "function"
    },
    {
      "constant": false,
      "inputs": [
        {
          "internalType": "string",
          "name": "firstName",
          "type": "string"
        },
        {
          "internalType": "string",
          "name": "lastName",
          "type": "string"
        }
      ],
      "name": "addPlayer",
      "outputs": [],
      "payable": false,
      "stateMutability": "nonpayable",
      "type": "function"
    },
    {
      "constant": true,
      "inputs": [
        {
          "internalType": "address",
          "name": "playerAddress",
          "type": "address"
        }
      ],
      "name": "getPlayerLevel",
      "outputs": [
        {
          "internalType": "enum gldnfMeta.level",
          "name": "",
          "type": "uint8"
        }
      ],
      "payable": false,
      "stateMutability": "view",
      "type": "function"
    }
  ],
  "bytecode": "0x60806040526000805534801561001457600080fd5b506107a1806100246000396000f3fe608060405234801561001057600080fd5b506004361061004c5760003560e01c8063302bcc571461005157806334b735a11461006f5780635cb119a9146100d5578063e2eb41ff14610227575b600080fd5b610059610398565b6040518082815260200191505060405180910390f35b6100b16004803603602081101561008557600080fd5b81019080803573ffffffffffffffffffffffffffffffffffffffff16906020019092919050505061039e565b604051808260028111156100c157fe5b60ff16815260200191505060405180910390f35b610225600480360360408110156100eb57600080fd5b810190808035906020019064010000000081111561010857600080fd5b82018360208201111561011a57600080fd5b8035906020019184600183028401116401000000008311171561013c57600080fd5b91908080601f016020809104026020016040519081016040528093929190818152602001838380828437600081840152601f19601f8201169050808301925050505050505091929192908035906020019064010000000081111561019f57600080fd5b8201836020820111156101b157600080fd5b803590602001918460018302840111640100000000831117156101d357600080fd5b91908080601f016020809104026020016040519081016040528093929190818152602001838380828437600081840152601f19601f8201169050808301925050505050505091929192905050506103f7565b005b6102696004803603602081101561023d57600080fd5b81019080803573ffffffffffffffffffffffffffffffffffffffff16906020019092919050505061053a565b604051808573ffffffffffffffffffffffffffffffffffffffff1673ffffffffffffffffffffffffffffffffffffffff1681526020018460028111156102ab57fe5b60ff1681526020018060200180602001838103835285818151815260200191508051906020019080838360005b838110156102f35780820151818401526020810190506102d8565b50505050905090810190601f1680156103205780820380516001836020036101000a031916815260200191505b50838103825284818151815260200191508051906020019080838360005b8381101561035957808201518184015260208101905061033e565b50505050905090810190601f1680156103865780820380516001836020036101000a031916815260200191505b50965050505050505060405180910390f35b60005481565b6000600160008373ffffffffffffffffffffffffffffffffffffffff1673ffffffffffffffffffffffffffffffffffffffff16815260200190815260200160002060000160149054906101000a900460ff169050919050565b60405180608001604052803373ffffffffffffffffffffffffffffffffffffffff1681526020016000600281111561042b57fe5b815260200183815260200182815250600160003373ffffffffffffffffffffffffffffffffffffffff1673ffffffffffffffffffffffffffffffffffffffff16815260200190815260200160002060008201518160000160006101000a81548173ffffffffffffffffffffffffffffffffffffffff021916908373ffffffffffffffffffffffffffffffffffffffff16021790555060208201518160000160146101000a81548160ff021916908360028111156104e457fe5b021790555060408201518160010190805190602001906105059291906106c7565b5060608201518160020190805190602001906105229291906106c7565b50905050600160008082825401925050819055505050565b60016020528060005260406000206000915090508060000160009054906101000a900473ffffffffffffffffffffffffffffffffffffffff16908060000160149054906101000a900460ff1690806001018054600181600116156101000203166002900480601f01602080910402602001604051908101604052809291908181526020018280546001816001161561010002031660029004801561061f5780601f106105f45761010080835404028352916020019161061f565b820191906000526020600020905b81548152906001019060200180831161060257829003601f168201915b505050505090806002018054600181600116156101000203166002900480601f0160208091040260200160405190810160405280929190818152602001828054600181600116156101000203166002900480156106bd5780601f10610692576101008083540402835291602001916106bd565b820191906000526020600020905b8154815290600101906020018083116106a057829003601f168201915b5050505050905084565b828054600181600116156101000203166002900490600052602060002090601f016020900481019282601f1061070857805160ff1916838001178555610736565b82800160010185558215610736579182015b8281111561073557825182559160200191906001019061071a565b5b5090506107439190610747565b5090565b61076991905b8082111561076557600081600090555060010161074d565b5090565b9056fea265627a7a7231582006bdf548ebc03700573f2813fa7261aff1baaef6e160b7a348a56c0360408f1664736f6c63430005100032",
  "source": "pragma solidity 0.5.16;\r\n\r\ncontract gldnfMeta {\r\n    uint public playerCount = 0;\r\n    mapping (address => Player) public players;\r\n\r\n    enum level {Novice, Intermediate, Advanced}\r\n\r\n    // creating the object player\r\n    // can search the player by address once created\r\n    struct Player{\r\n        address playerAddress;\r\n        level playerLevel;\r\n        string firstName;\r\n        string lastName;\r\n    }\r\n    \r\n    function addPlayer(string memory firstName, string memory lastName) public {\r\n        players[msg.sender] = Player(msg.sender, level.Novice, firstName, lastName);\r\n        playerCount += 1;\r\n    }\r\n    \r\n    // created a function to grab the player level and can find as well by the address.\r\n    function getPlayerLevel(address playerAddress) public view returns(level){\r\n        return players[playerAddress].playerLevel;\r\n    }\r\n\r\n\r\n\r\n\r\n\r\n    \r\n}",
  "sourcePath": "C:\\Users\\desig\\Desktop\\gldnfLabs\\contracts\\gldnfMeta.sol",
  "compiler": {
    "name": "solc",
    "version": "0.5.16+commit.9c3226ce.Emscripten.clang"
  },
  "schemaVersion": "3.4.3",
  "updatedAt": "2021-10-05T11:00:19.355Z",
  "devdoc": {
    "methods": {}
  },
  "userdoc": {
    "methods": {}
  }
}