{
  "contractName": "modCoin",
  "abi": [
    {
      "inputs": [],
      "payable": false,
      "stateMutability": "nonpayable",
      "type": "constructor"
    },
    {
      "anonymous": false,
      "inputs": [
        {
          "indexed": false,
          "internalType": "address",
          "name": "from",
          "type": "address"
        },
        {
          "indexed": false,
          "internalType": "address",
          "name": "to",
          "type": "address"
        },
        {
          "indexed": false,
          "internalType": "uint256",
          "name": "amount",
          "type": "uint256"
        }
      ],
      "name": "Sent",
      "type": "event"
    },
    {
      "constant": true,
      "inputs": [
        {
          "internalType": "address",
          "name": "",
          "type": "address"
        }
      ],
      "name": "balances",
      "outputs": [
        {
          "internalType": "uint256",
          "name": "",
          "type": "uint256"
        }
      ],
      "payable": false,
      "stateMutability": "view",
      "type": "function"
    },
    {
      "constant": true,
      "inputs": [],
      "name": "minter",
      "outputs": [
        {
          "internalType": "address",
          "name": "",
          "type": "address"
        }
      ],
      "payable": false,
      "stateMutability": "view",
      "type": "function"
    },
    {
      "constant": false,
      "inputs": [
        {
          "internalType": "address",
          "name": "receiver",
          "type": "address"
        },
        {
          "internalType": "uint256",
          "name": "amount",
          "type": "uint256"
        }
      ],
      "name": "mint",
      "outputs": [],
      "payable": false,
      "stateMutability": "nonpayable",
      "type": "function"
    },
    {
      "constant": false,
      "inputs": [
        {
          "internalType": "address",
          "name": "receiver",
          "type": "address"
        },
        {
          "internalType": "uint256",
          "name": "amount",
          "type": "uint256"
        }
      ],
      "name": "send",
      "outputs": [],
      "payable": false,
      "stateMutability": "nonpayable",
      "type": "function"
    }
  ],
  "bytecode": "0x608060405234801561001057600080fd5b50336000806101000a81548173ffffffffffffffffffffffffffffffffffffffff021916908373ffffffffffffffffffffffffffffffffffffffff160217905550610529806100606000396000f3fe608060405234801561001057600080fd5b506004361061004c5760003560e01c8063075461721461005157806327e235e31461009b57806340c10f19146100f3578063d0679d3414610141575b600080fd5b61005961018f565b604051808273ffffffffffffffffffffffffffffffffffffffff1673ffffffffffffffffffffffffffffffffffffffff16815260200191505060405180910390f35b6100dd600480360360208110156100b157600080fd5b81019080803573ffffffffffffffffffffffffffffffffffffffff1690602001909291905050506101b4565b6040518082815260200191505060405180910390f35b61013f6004803603604081101561010957600080fd5b81019080803573ffffffffffffffffffffffffffffffffffffffff169060200190929190803590602001909291905050506101cc565b005b61018d6004803603604081101561015757600080fd5b81019080803573ffffffffffffffffffffffffffffffffffffffff169060200190929190803590602001909291905050506102e9565b005b6000809054906101000a900473ffffffffffffffffffffffffffffffffffffffff1681565b60016020528060005260406000206000915090505481565b6000809054906101000a900473ffffffffffffffffffffffffffffffffffffffff1673ffffffffffffffffffffffffffffffffffffffff163373ffffffffffffffffffffffffffffffffffffffff1614610271576040517f08c379a00000000000000000000000000000000000000000000000000000000081526004018080602001828103825260228152602001806104d36022913960400191505060405180910390fd5b80789f4f2726179a224501d762422c946590d91000000000000000811061029757600080fd5b81600160008573ffffffffffffffffffffffffffffffffffffffff1673ffffffffffffffffffffffffffffffffffffffff16815260200190815260200160002060008282540192505081905550505050565b80600160003373ffffffffffffffffffffffffffffffffffffffff1673ffffffffffffffffffffffffffffffffffffffff1681526020019081526020016000205481111561039f576040517f08c379a00000000000000000000000000000000000000000000000000000000081526004018080602001828103825260128152602001807f496e7375666669656e742042616c616e6365000000000000000000000000000081525060200191505060405180910390fd5b81600160003373ffffffffffffffffffffffffffffffffffffffff1673ffffffffffffffffffffffffffffffffffffffff1681526020019081526020016000206000828254039250508190555081600160008573ffffffffffffffffffffffffffffffffffffffff1673ffffffffffffffffffffffffffffffffffffffff16815260200190815260200160002050507f3990db2d31862302a685e8086b5755072a6e2b5b780af1ee81ece35ee3cd3345338484604051808473ffffffffffffffffffffffffffffffffffffffff1673ffffffffffffffffffffffffffffffffffffffff1681526020018373ffffffffffffffffffffffffffffffffffffffff1673ffffffffffffffffffffffffffffffffffffffff168152602001828152602001935050505060405180910390a150505056fe4f6e6c79206d696e7465722063616e2063616c6c20746869732066756e6374696f6ea265627a7a72315820152254097dcc1670654c27b9e172a6051009402d9ac00fd04deed509711f448b64736f6c63430005100032",
  "source": "pragma solidity 0.5.16;\r\n\r\ncontract modCoin {\r\n    // address: keyword for the wallet account\r\n    address public minter;\r\n    //mapping: data type - store associations of two values\r\n    mapping (address => uint) public balances;\r\n\r\n\r\n\r\n    event Sent(address from, address to, uint amount);\r\n\r\n    modifier onlyMinter {\r\n        require(msg.sender == minter, \"Only minter can call this function\");\r\n        _;\r\n    }\r\n\r\n    modifier amountGreaterThan(uint amount) {\r\n        require(amount < 1e60); \r\n        _;\r\n    }\r\n\r\n    modifier balanceGreaterThanAmount(uint amount){\r\n        require(amount <= balances[msg.sender], \"Insuffient Balance\"); \r\n        _;\r\n    }\r\n\r\n    //constructor: a function that runs directly when the contract is created.\r\n    constructor() public {\r\n        //msg: a keyword that allows us to call the contact\r\n        minter = msg.sender;\r\n    }\r\n\r\n    function mint(address receiver, uint amount) public onlyMinter amountGreaterThan(amount) {\r\n        balances[receiver] += amount; \r\n    }\r\n\r\n    function send(address receiver, uint amount) public balanceGreaterThanAmount(amount) {\r\n        balances[msg.sender] -= amount;\r\n        balances[receiver] <= amount;\r\n\r\n        //trigger the event to log and record all actions\r\n        emit Sent(msg.sender, receiver, amount);\r\n    }\r\n\r\n}",
  "sourcePath": "C:\\Users\\desig\\Desktop\\gldnfLabs\\contracts\\modCoin.sol",
  "compiler": {
    "name": "solc",
    "version": "0.5.16+commit.9c3226ce.Emscripten.clang"
  },
  "schemaVersion": "3.4.3",
  "updatedAt": "2021-10-05T11:00:19.393Z",
  "devdoc": {
    "methods": {}
  },
  "userdoc": {
    "methods": {}
  }
}